:10C000003CB8F3962400000020000000303B000004
:10C01000020000000100000000000000000000001D
:10C0200000800020B9000000B5000000B50000004D
:10C03000B5000000B5000000B5000000B50000002C
:10C04000B5000000B5000000B5000000F32E0000B0
:10C05000B5000000B5000000332F0000712F000074
:10C06000B5000000B5000000B5000000B5000000FC
:10C07000B5000000B5000000B5000000B5000000EC
:10C08000B5000000B5000000B5000000B5000000DC
:10C09000B5000000B5000000B5000000B5000000CC
:10C0A000B5000000B5000000B5000000B5000000BC
:10C0B000B5000000B5000000B5000000B5000000AC
:10C0C000B5000000B5000000B5000000B50000009C
:10C0D00000000000FEE700001F48204970B5002363
:10C0E000884232D100211E4B1E4A934232D3022293
:10C0F00003210C25082430261B4B1C485A62C378A8
:10C100008B431343C370C378AB432343C370184BB3
:10C11000987BB0430600202030439873987BA84357
:10C1200004439C73987B884302439A738023114A8B
:10C1300051680B43536000F072FA00F01FF800F0F2
:10C1400067FAFEE7C458043314600B4CCA18A242C5
:10C15000F8D3C7E702C3C8E7E83A0000B4000020FC
:10C16000FC0000204C150020FC70004100500041F4
:10C170000048004100400041FC00002010B500F0E4
:10C1800024F9002000F08CF8034B1B7AD840034BB5
:10C19000186001F0D5F810BD000400409413002091
:10C1A000014B5878C0097047000C00400823054A2D
:10C1B00091690B4393610123034A1370117819426B
:10C1C000FCD1704700040040000C004070B50C78B2
:10C1D0004B782402060005000443002B02D0802384
:10C1E000DB021C434B7A002B02D080231B031C4331
:10C1F0004B68012B10D95D1E1D402FD01D028023DE
:10C2000035439B0207E0013552009342FBD880235F
:10C210002D0235435B031C430B7A002B02D0802395
:10C220009B031C43FFF7BCFF0028FBD100F0D4F8B0
:10C230000B4B1E70FFF7B4FF0028FBD1094B9D602C
:10C240001D00FFF7ADFF0028FBD180226B68520272
:10C2500013401C436C6000F0D9F870BD0222D4E793
:10C26000080C0040000C004010B50400FFF798FFD8
:10C270000028FBD100F0B0F8074B1C70FFF790FFCF
:10C280000028FBD18023054A5B0251680B435360B1
:10C2900000F0BCF810BDC046040C0040000C00408B
:10C2A000F8B50700FFF77CFF0028FBD1154E00F022
:10C2B00093F83770FFF774FF0028FBD1124C6068C9
:10C2C000C004C00E00F0C2F80500377066680F4B5E
:10C2D000F602F60F1F70FFF763FF0028FBD1A4687A
:10C2E0002402240C00F092F8002E08D1012C04D96D
:10C2F0002800210003F00EF905002800F8BD0134E4
:10C30000E540FAE7040C0040000C0040080C004037
:10C3100010B5040000F060F8054B064A1C7080233D
:10C320005188DB010B43538000F070F810BDC0460C
:10C33000020C0040000C004010B5040000F04CF866
:10C340000D4B0E4A1C700E4B0E4C58885988000538
:10C35000114059805988000F2140598011008022D6
:10C36000D2015C881442FCD15A8800020A40024380
:10C370005A8000F04BF810BD020C0040FFF0FFFFA8
:10C38000000C0040FFBFFFFF10B50C7824020443EF
:10C39000FFF7D2FF014BA4B25C8010BD000C00403F
:10C3A00010B5040000F018F8054B1C70054B5C88B4
:10C3B00000F02CF82405240F2000FFF771FF10BDBA
:10C3C000020C0040000C0040704710B500F0E4F88B
:10C3D000FFF7FAFF10BD0000094B196800290BD1C7
:10C3E000EFF31080074A002805D172B6BFF35F8FC4
:10C3F00005490870012111701A6801321A607047EE
:10C40000FC00002000010020B4000020084B1A6846
:10C41000013A1A601B68002B09D1064B1B78002BD0
:10C4200005D00122044B1A70BFF35F8F62B67047CC
:10C43000FC00002000010020B4000020102302496D
:10C44000CA681A42FCD070470008004070B508283E
:10C4500006D803F055F80805052E2E120B152600F8
:10C460000024200070BD154B1C69FAE7144B154CD5
:10C470001B6A9B059B0FDC40F3E7104B5C69F0E700
:10C480000E4D00242B689B07EBD5FFF7D7FF2B68D9
:10C490005B0711D52000FFF783FFAC68A4B24443CB
:10C4A000DFE7094B00241B785B07DAD5034BDC6818
:10C4B000D7E780242402D4E7044CD2E7040100200B
:10C4C0000008004000127A0050080040006CDC02B6
:10C4D00070B50278847845780120402605402040D8
:10C4E00080240849AD010B6AC001B3432B43A34329
:10C4F00003430320024004481202034013430B622B
:10C5000070BDC04600080040FFFCFFFF70B5082862
:10C5100006D802F0F5FF1405050C0E1A07203500A9
:10C52000172070BD0223194A116A0B4313620020C1
:10C53000F7E70223154A91690B439361F7E702235A
:10C54000124A118A0B431382F1E702230F4A918AA0
:10C550000B439382EBE7022200240D4E0B4D336810
:10C5600013433360AA84FFF769FFB368EB62736813
:10C57000AB62AC84FFF762FF33689BB2AB84D6E753
:10C580000223044A11780B431370D0E700080040DF
:10C5900004010020440800407FB5C2221E21194B2F
:10C5A000D2009A60184A0024536801AD8B4353604F
:10C5B00001232B70E0B229000134FFF7E5FE252CA2
:10C5C000F8D100246B46012668469E705C701C7092
:10C5D000FFF77EFF0620FFF799FFFFF7E7FD0B4B04
:10C5E00029001C725C729C72DC72062320006E6053
:10C5F0002B706C702C726C72FFF7E8FD2000FFF757
:10C6000033FE7FBD000800400040004100040040B0
:10C61000002110B5080000F003F800F029FF704772
:10C620001FB500F04DFE02F069FE01A800F07AF996
:10C63000002805D000231A001900180002F0CEFBD4
:10C64000019B1889039BC01801F0B8F8F7B50024C6
:10C6500001262827200002F042FE01A9C0B202F004
:10C66000A9FD3500011E0AD13B0063430A4A019827
:10C67000D218202302F0FEFD0500681E85410198B6
:10C6800002F0B8FD002D03D0350065402800FEBD46
:10C69000012CFBD03400DDE71C010020F0B585B093
:10C6A000019300230C00C0B202A9009202930393ED
:10C6B00002F080FD002809D00126029802F09AFDC0
:10C6C000039802F097FD300005B0F0BDE0B203A979
:10C6D00002F070FD0600041EEED10A9B02989C42F7
:10C6E000EBD20A9B1D1B8023DB009D4200D91D005D
:10C6F000009B094FE1183A002B0002F0BBFD002817
:10C70000DAD1019B3A00E11803982B0002F0C2FD38
:10C710000028D1D16419E0E77C01002073B50C003A
:10C72000C0B201A9150002F045FD0126002807D17D
:10C730002A002100019802F0BDFD0600701E86410E
:10C74000019802F057FD300076BD07B5012001A920
:10C7500002F030FD002801D001200EBD694601988D
:10C7600000F082FA0028F7D16B461B78032B11D01A
:10C770006B465B78FF2B04D1019800F0DBFA0028B0
:10C78000EBD16B469B780020FF2BE6D1019800F09F
:10C79000ECFAE2E7019800F0BDFA0028E8D0DCE707
:10C7A000F0B505002B6885B00320002B00D00238BF
:10C7B000C0B201A902F0FEFC0124002823D1019897
:10C7C00000F04DFA134B02345C331B782A685C434B
:10C7D00054432A7902AE5343E418019B2418587835
:10C7E00000F069FE07000822FF21300002F0D2FCB1
:10C7F0002B792100337032003B00019802F04AFD92
:10C800000400601E8441019802F0F4FC200005B091
:10C81000F0BDC0461C010020414BF0B55E6A04002B
:10C82000002385B0013E0293002E02DA002005B0FD
:10C83000F0BD002501F016FB394B1A6A996D0C23E7
:10C840007343D3189B68EB188B4202D81D00013E3E
:10C85000F5D2236802998B425FD80C21731C59438F
:10C8600053185F68039153682179FF1A002912D188
:10C870002A000320FFF752FF031E4ED100953A0015
:10C8800003210220FFF70AFF002846D101232000E0
:10C890002371FFF785FF2379012B25D12A00390069
:10C8A0000220FFF73BFF002837D11D4B039A196A7E
:10C8B00028008C46996C624452684968AA188A42DA
:10C8C00004D35C33187800F0B1F9281A00903B00CB
:10C8D0003A0002210120FFF7E1FE00281DD10223CA
:10C8E00020002371FFF75CFF2379022B15D12A006A
:10C8F00039000120FFF712FF021E0ED100953B0008
:10C9000001210320FFF7CAFE002806D12368207109
:10C91000013323602000FFF743FF029B013382E7CE
:10C920001C010020F0B57825AD4CAE4AAE4B91B05D
:10C9300007902262A3640DA901200D9502F05BFC13
:10C94000002802D001230693ADE00D9BA26C636228
:10C950000EA902200E9502F04EFC0028F2D10E9B8B
:10C960000CADE3642900033002F024FC0028E9D177
:10C9700023000C9A503343CA43C3236A587800F00B
:10C980009AFD230051330600187800F094FD331C03
:10C99000864200D2031C22005C321370FFF756FE61
:10C9A0000690002800D07EE0616AE36C0590994211
:10C9B0006BD10823266AA06C069A91423ADC0021CA
:10C9C00008220EA802F0E6FB2900002000F08DF9F5
:10C9D000002829D10DA9012000F087F9002823D1D2
:10C9E0000BAC200000F06EF90590031E1CD12678D8
:10C9F0002F786C787D4A995CD518002901D0B9420E
:10CA000022D1D1184878002801D0B0421CD18978B1
:10CA1000002901D0A14217D1EB78012B46D0002B81
:10CA200015D00120022B42D000231A001900180053
:10CA300002F0D4F91C00F758C3580C349F4200D0C0
:10CA4000CCE001322300B8E70433102BD3D10E9B86
:10CA50000EAE002B02D13379002B5FD03000FFF7F0
:10CA6000DBFE041EE0D100F09BF9012802D004286F
:10CA7000DAD102345E4B6400E45C032C00DD99E003
:10CA8000022C00DB9BE0012CCED1554B07981A6A93
:10CA9000517801715268089228220899816005999D
:10CAA0004A439B180360069811B0F0BD0320C0B242
:10CAB0000DA902F07FFB051E00D043E70D9F2C005F
:10CAC000380000F0CCF8464B08905C330993099B82
:10CAD0000CAE1978089B61433200C9183800012355
:10CAE00002F0C8FB002800D02CE73378FF2B0ED1D2
:10CAF000002D0DD0013C0321200002F095FD032103
:10CB00000E90200002F076FE0EAB19719FE7012512
:10CB10000134802CDBD1002D99D0EBE700F040F9F7
:10CB200004000128B1D02E4DAB6A013329D0AB6B84
:10CB3000DB0626D4012002F0D2FB0DA9C0B202F020
:10CB400039FB00281DD12B4BAA6A9A4214D10D9BA8
:10CB5000294F08933B68002B16D000232800264A53
:10CB600002930193009301332830FF331268089930
:10CB700000F054F900280FD00D980021826802F0CF
:10CB800099FBFFF7E2FD80E78020400002F092F978
:10CB900038600028E1D1EFE70D9802F02BFBA31ECF
:10CBA000022B00D969E73000FFF736FE002800D1DC
:10CBB00063E739E7042C0ED0FF2CE2D034E73100D4
:10CBC000012002F0F7FA002802D10E9800F0B2F826
:10CBD0000123059359E7FFF7B8FDF9E70023F8E7CC
:10CBE0001C0100207C0500201C0B002048380000A0
:10CBF000583800003CB8F396BC10002010B5102245
:10CC00000949040002F0B0FA0123002808D02300EB
:10CC100010332268013205D004349C42F9D102233A
:10CC2000180010BD0323FBE760380000020043003A
:10CC3000C0204000504318181030704710B5040051
:10CC400002F048FBFFF7F2FFA368834205D20023FE
:10CC50001A001900180002F0C1F8181A10BD10B51A
:10CC6000FFF7ECFF103010BD7FB504000D00FFF79B
:10CC7000E5FF102301006A46200002F0FBFA0028BD
:10CC800002D0012004B070BD6846FFF7B7FF2870DE
:10CC90002000A66802F01EFB4000311A6A1C012326
:10CCA000200002F0E7FA0028EBD12000A66802F08D
:10CCB00011FB0123311AAA1C200002F0DBFA431EEB
:10CCC0009841DFE737B5050001A9032002F072FAA9
:10CCD0000124002804D129000198FFF7C5FF0400B2
:10CCE000019802F087FA20003EBD37B50D0002F032
:10CCF000F6FA01A9C0B202F05DFA0124002804D1BD
:10CD000029000198FFF7B0FF0400019802F072FAC1
:10CD100020003EBD10B50400FFF790FF1023010076
:10CD2000034A200002F0B6FA431E984110BDC046E7
:10CD30006038000073B50400856802F0CBFA40004B
:10CD40002D1A607800F0B7FB08220600FF21684624
:10CD500002F020FA6A4601232900137020003300F4
:10CD600002F098FA431E984176BD73B504008568B9
:10CD700002F0B0FA2D1A607800F09DFB0822060040
:10CD8000FF21684602F006FA6A4601232900137063
:10CD90002000330002F07EFA431E984176BD000069
:10CDA000F0B585B002A90020FFF79FFF002805D04D
:10CDB00000231A001900180002F010F803AC21003B
:10CDC0000120FFF792FF0028F2D102AB1B782578F3
:10CDD000019302AB9E78A4780F4BC25C1F18002A07
:10CDE00002D001998A420FD11A185178002901D036
:10CDF000A94209D19178002901D0B14204D1D27859
:10CE0000002A05D0A24203D005301928E5D1CFE78A
:10CE1000387905B0F0BDC04670380000F0B5CFB02D
:10CE2000039303690500019117009B0703D40120B8
:10CE300040424FB0F0BD0EA800F06FF800210EA8E0
:10CE400000F072F8549B002B07D0559B002B04DD9B
:10CE50001A0054990EA800F09EF900242B89EA6864
:10CE60009B180293029BA3422BD806A90EA800F0A0
:10CE700099F9569B002B04D0202206A9180002F035
:10CE800080F90026EB682C89E418AB881B19029303
:10CE9000029B9C422CD32B6900209B07C9D586425C
:10CEA000C5D020230EAA3100019802F0E3F9002832
:10CEB000BFD120220EA906A802F056F9431E9841C0
:10CEC000B6E700F0CFFF029B039E1B1B9E4200D9DA
:10CED0001E0033003A002100019802F0CBF900282F
:10CEE000A7D1320039000EA800F055F9A419B9E70E
:10CEF00005AF04233A002100019802F0BBF9002895
:10CF000000D096E73A787B88012A03D1202B00D005
:10CF10008DE7261D0433E418BAE710B56C22002112
:10CF200002F038F910BD000000230360436099420D
:10CF300011D1114B8360114BC360114B0361114B35
:10CF40004361114B8361114BC361114B0362114B60
:10CF5000436281667047104B8360104BC360104B77
:10CF60000361104B4361104B8361104BC361104B45
:10CF70000362104BECE7C04667E6096A85AE67BB03
:10CF800072F36E3C3AF54FA57F520E518C68059BAB
:10CF9000ABD9831F19CDE05BD89E05C107D57C3680
:10CFA00017DD703039590EF7310BC0FF1115586875
:10CFB000A78FF964A44FFABE0023F0B5D1B0069054
:10CFC0000791069AD21892680092009908AA99507F
:10CFD0000433202BF5D10F9B202105930E9B494252
:10CFE00001930D9B0C9C0293099B08989C460A9BFD
:10CFF000891803930B9B049300230093009B0F2B32
:10D0000000D96DE0079A9B00D618D25CF37812061F
:10D010001A4373781B041343B278120213430B6450
:10D02000062326002200DE410533DA41192356404B
:10D030002200DA41009B5640374A9B00D2580B6CC5
:10D040000500D218B618019B029A04315A402240BA
:10D050005A40059BB218D218049B0600D718022329
:10D06000DE410B33DD412B00050073401626F541F0
:10D0700066466B40039D06432E40654605402E43A1
:10D080009E19009BB61801330093019B0593039BE7
:10D090000493009B402B1AD1019B0C970F93029B8A
:10D0A0000D940E9363460A93039B08960B930023FB
:10D0B0000990069AD118886808AA8446D258043381
:10D0C000009262448A60202BF3D151B0F0BD6346D8
:10D0D0000393029B84460294300001933C008DE749
:10D0E0008B6B11251F001E00EF410235EE419B0A9C
:10D0F0007E404A6873404D6A0E681700AE190725D6
:10D100009B191600EF410B35EE41D2087E40564088
:10D110009E190E6484E7C0468C380000F7B53F26A0
:10D12000036804001E409B180F00150003609A421C
:10D1300002D9436801334360002E14D040239B1B67
:10D140000093AB420FD823002833981900263900EA
:10D15000009A019302F015F801992000FFF72CFFC7
:10D16000009BFF18ED1A0095009B7919C91A3F2BF7
:10D170000AD8AA099201B918AA1A04D020002830A6
:10D18000801901F0FEFFF7BD2000FFF715FF009B9F
:10D19000403B0093E8E710B5002A01D0FFF7BEFF3F
:10D1A00010BD000073B56E46026843680D00DB00D9
:10D1B000510F0B430400180ED1003070180C707022
:10D1C000F370180A0B0E33710B0C73710B0AB371E9
:10D1D0003F23B0701A40F171073B372A00D97823FA
:10D1E0009A1A32492000FFF7D6FF0822694620002C
:10D1F000FFF794FFA3681B0E2B70A3681B0C6B70CA
:10D20000A3681B0AAB70A368EB70E3681B0E2B715D
:10D21000E3681B0C6B71E3681B0AAB71E368EB718D
:10D2200023691B0E2B7223691B0C6B7223691B0A6B
:10D23000AB722369EB7263691B0E2B7363691B0C62
:10D240006B7363691B0AAB736369EB73A3691B0E92
:10D250002B74A3691B0C6B74A3691B0AAB74A369C1
:10D26000EB74E3691B0E2B75E3691B0C6B75E369AB
:10D270001B0AAB75E369EB75236A1B0E2B76236AD9
:10D280001B0C6B76236A1B0AAB76236AEB76A36EC4
:10D29000002B0AD1636A1B0E2B77636A1B0C6B771A
:10D2A000636A1B0AAB77636AEB7773BD8C39000046
:10D2B0000023984200D1014B18007047B8000020AD
:10D2C00010B5184B86B00193174B012200931749F4
:10D2D0000023174801F0B0FD002807D00020154BAF
:10D2E00000901C68020003000100A047022302A96D
:10D2F0000B7204330B70104B0020CB6012234B6079
:10D3000000F0FAFA002805D000231A0019001800CE
:10D3100001F064FD094801F079FD0028F4D106B060
:10D3200010BDC046D4390000E1130000CC39000024
:10D33000C0100020F4000020002C004240420F00EA
:10D34000064A07498A4205D00023C858D050043302
:10D35000B42BFAD1034B9A607047C04600000020FE
:10D360000000000000ED00E0034B10309B688000DF
:10D37000C150BFF35F8F704700ED00E010B5036B45
:10D38000186800F04FFC10BD10B5036B186800F072
:10D390000FFC10BD036B10B5186800F033FD0028BA
:10D3A00000D0022010BD37B50300141E01D10220A9
:10D3B0003EBDC27E0B209207FAD41D6B63692269C1
:10D3C0000093A168E368286800F0DAFBE1796379EB
:10D3D0000191A179227900912868216800F03CFC34
:10D3E0000028E5D0E3E7006B10B5002804D1030066
:10D3F0000200010001F0F2FC006800F0EDFB10BD3E
:10D40000F8B5040004200F0001F054FD06000120CF
:10D41000002E10D00123E5695B422800336001F043
:10D42000C1FE2D18013D28783038092804D9300074
:10D4300001F044FD0220F8BD084B30602360084B2A
:10D440002663E360074B39006362074BA362074B17
:10D45000E36200F0F9FC0020EDE7C046871300000E
:10D4600075130000C7130000691300005D1300006E
:10D4700010B500F087F943688B4204D8806818180B
:10D4800088428041704701204042FBE770B500258B
:10D4900001262C0076422000FFF70AFF002808D062
:10D4A00003681B699847002800D035000134E4B2B6
:10D4B000F1E7280070BD10B5FFF7FAFE0123002840
:10D4C00001D00369DBB2180010BDF7B50D00019261
:10D4D0001E00FFF7EDFE041E12D02900FFF7CBFF60
:10D4E00000280DD1A9192000FFF7C5FF002807D19A
:10D4F0002368019A1F68290033002000B847FEBD49
:10D5000001204042FBE7F7B50D0001921E00FFF736
:10D51000CFFE041E12D02900FFF7ADFF00280DD169
:10D52000A9192000FFF7A7FF002807D12368019A57
:10D530005F68290033002000B847FEBD012040424B
:10D54000FBE7F0B585B00E001500FFF7B1FE041E35
:10D5500004D101256D42280005B0F0BD3100FFF770
:10D560008AFF0028F5D17319190020000193FFF7F5
:10D5700082FF051EEDD1019BB342EAD90090E3681A
:10D58000009A9342E7DD236802AADB6800991F0036
:10D59000200003ABB847002805D000231A0019006B
:10D5A000180001F01BFC0299039BCB189E4203D389
:10D5B000009B01330093E2E7019B8B42F8D923687B
:10D5C00020009B6898470028F2D0C2E7002230B5BF
:10D5D00087B001A8114B02705B68C270DB061B0F9D
:10D5E00083700271427000F049FC041E12D103AD39
:10D5F000280000F07FFD0A4B0A4A5C601A606A88C6
:10D600002978200051431209DA60012299601A61D9
:10D6100007B030BD01204042FAE7C046004000415B
:10D62000B8000020F4390000F0B585B001AD280045
:10D6300016001F000C0000F05DFD2B786A881B01AE
:10D640001209944205D200205C433B60346005B06F
:10D65000F0BD01204042FAE77FB501AD28000E0081
:10D66000002400F047FD28786043801900F018FD81
:10D67000002804D10434102CF5D104B070BD012071
:10D680004042FAE7F0B599B005AF38001C000E0033
:10D69000029200F02FFD3B78402B2ED900231A0078
:10D6A0001900180001F09AFB3A7853423340019375
:10D6B000F31A0393D51AA54200D9250092B208A9FE
:10D6C000019800F0B9FC002803D00120404219B0B5
:10D6D000F0BD08AA9446039B641B76196344029A22
:10D6E0001218039285420CD13A7808A9019800F0EB
:10D6F00057FC039B02930028E7D1002CD4D12000D3
:10D70000E5E71A5CFF2AE0D1029A125C1A54013054
:10D71000E5E7F0B597B003AF38001C000E000092AB
:10D7200000F0E8FC3B78402B1FD900231A001900B9
:10D73000180001F053FB3A7850423040331A0193FD
:10D74000D51AA54200D9250092B206A900F074FCB2
:10D75000002814D106AA9446019B641B76196344E1
:10D76000854207D1009B5B190093002CE3D1200078
:10D7700017B0F0BD1A5C00990A540130F0E701209F
:10D780004042F5E7064B9B789B0700D500BEBFF3F0
:10D790004F8F044B044ADA60BFF34F8FC046FDE75A
:10D7A0000020004100ED00E00400FA05024B9878EB
:10D7B000022318407047C0460020004180B503682E
:10D7C00000AF83F3088883F3098843689847BD4610
:10D7D00080BD0000F7B510270B0CBB40866942687E
:10D7E000050037739B1A07D51F236A781A401E3B22
:10D7F00093400B4A5360F7BD002BFCD10400183452
:10D800008AB220001900019201F021F9B7732000BB
:10D81000777301F007F9019B9842E5D2EBE7C04628
:10D82000FCE100E0F7B505002F008369183701938C
:10D83000FEF7D2FD38006E68012401F0F3F8019B79
:10D8400080B29B7B23420FD080235B02F6186E6070
:10D85000380001F0E7F81F22019B80B29C736B78BF
:10D8600013409C40034B5C600643FEF7CFFD300045
:10D87000FEBDC046FCE100E0102370B51D4CA6695A
:10D88000B27B1A4200D0B3730123B27B1A4205D097
:10D890008022B373636852029B186360A3680133EC
:10D8A000A360FEF799FD2569002D05D02000FFF744
:10D8B000B9FFEB68C01A0AD52369002B16D0D968C6
:10D8C0002000FFF787FFFEF7A1FDB37B70BD2B693A
:10D8D0006A69002B08D05A616A6913600023A8683E
:10D8E0006B616B689847DEE76261F5E71022A36918
:10D8F0001A73E8E798130020F0B5040085B00F0014
:10D9000002285DDC314B8200D358002B58D01B78A5
:10D91000002B55D1002855D101263B7801A94E6036
:10D920000E720B7048704872387AFEF74FFC7868B8
:10D93000274DC2B26A703B7840B2AB70397AAB19EE
:10D94000D977FB68EE70AB611F2313409E40214BDB
:10D95000DE67002821DA03260F2313403240B2404D
:10D96000FC369640083B1C499B089B005B18D96914
:10D97000B143C026964032000A43DA611749FFF7E7
:10D98000F3FCAB69DA7B52B2002AFBDB02211A8876
:10D990008A431A80200005B0F0BD03273A40BA4000
:10D9A0000F4983089B005B18C021FC379740890012
:10D9B0005E58BE43C02797403A0032435A50DDE7D5
:10D9C0001624E7E701246442E4E7C046203A000059
:10D9D0009813002004E100E000ED00E05918000079
:10D9E00000E100E0F0B591B0022803DD1623180035
:10D9F00011B0F0BD3D4B8000C658002EF6D03478F3
:10DA0000002CF3D1F378002BF0D00029EED003AD39
:10DA10002C70AC70AC80AC712C816C70AC72EC7200
:10DA20002C73AC736C732C746C61AC612C770B949D
:10DA30000C940D94AC85B378033BDBB2052B52D824
:10DA40002B4A9B009F5823008F42D0D3380001F00F
:10DA500061FD284A411E23009142C8D8012811D0F7
:10DA600001331C000121A1400191814230D30121E9
:10DA7000621E91409446421A0199081A824201D2CC
:10DA80006246D4B21B02AB80731CD87F2870FEF7AD
:10DA9000EBFB30002A00B169183000F0C1FE00280D
:10DAA000A4D10122B3695A73DA7B52B2002AFBDB9C
:10DAB00002221988E7400A431F211A800123727845
:10DAC00033700A4093400C4AF760136000238EE7DE
:10DAD000032C06D801340133E4B29BB20A2CC1D91D
:10DAE000D0E70234F7E701235B4280E7203A0000E9
:10DAF000083A0000FF03000000E100E070B50500F7
:10DB00000024E86C6B6C9847002805DB2300013487
:10DB10003833E854082CF4D1200070BD030010B550
:10DB200034331B780400002B0BD0036C002B03D084
:10DB3000C18EC06CC9B2984721002000363100F078
:10DB400038FD10BD030010B534331B780400002BE2
:10DB50000DD0FFF7D3FF23003533002808DD012265
:10DB600021001A70383182B2200000F027FD10BD6C
:10DB700000221A70A36C9342F9D0E06C9847F6E744
:10DB800010B505280EDC54246043084C24182000EE
:10DB900034300078002805D12364029B6164A264BC
:10DBA000E36410BD01204042FBE7C046F4100020B2
:10DBB00010B505280CDC542343430649C81802005D
:10DBC00034321278002A03D03633591800F0F1FCB1
:10DBD00010BDC046F4100020F8B505281EDC542402
:10DBE00044430F4E35192B0034331B78002B15D0CE
:10DBF0002F0035373B78002B10D16B6C002B0DD0EC
:10DC00002800FFF77BFF002808DD210001233831C1
:10DC100082B23B708919280000F0D0FCF8BDC046E4
:10DC2000F41000200300542058430A4B70B5181814
:10DC3000030034331B78002B0BD004000125313452
:10DC4000237889B2AB43237000F052FC23781D4344
:10DC5000257070BDF4100020F0B595B002921AAA9C
:10DC600016781BAA12780500039254224243614899
:10DC7000019180180200343212780093002A03D0F8
:10DC80000120404215B0F0BD046D002CF8D080207A
:10DC9000C0050490FF2004AF38810120BA72FA72E7
:10DCA0000537F87704AF0637F87704AF0737FA7708
:10DCB00006AFFA77882713217F0307970FAF3A70D3
:10DCC0008C462D2704AB1900FF181A82DA761A76D3
:10DCD0001A775A7663464A7705920E923A701092F6
:10DCE0001192129213920992029A8B76019B053A35
:10DCF0000C930100042AC3D8100001F001FC030EAC
:10DD000010061200052204ABDA72012E0CD0002E90
:10DD10000ED0022EB4D1002208E00622F3E707223B
:10DD2000F1E704ABD972F0E78022920104AB1A81CB
:10DD3000009B012B04D0022BA2D13E3304AA937284
:10DD4000039B012B9CD8636804AA0793237A21685C
:10DD50003B70E3680993638913820222236910935D
:10DD600063691193A3691293E36913930B68934357
:10DD70000B6001230A681A430A606422086818428B
:10DD800002D0013A002AF9D154266E43194C04AA54
:10DD90003719380000F066FA021E00D070E738002C
:10DDA000154900F0FAFB38000122144900F0F5FB98
:10DDB000032331373A7813433B703759380000F06A
:10DDC000F9F91F2318401E3B83400D4A1360335955
:10DDD000DE69002EFCD102233A68280013433B6021
:10DDE00054236B43E418012334342370FFF7E0FE1F
:10DDF000300047E7F4100020251B0000FD1A00004A
:10DE000000E100E070B55424032144430C4D2B196C
:10DE100031331A7866598A431A70300000F0CAF913
:10DE20001F2318401E3B8340064AD3676359D869B5
:10DE30000028FCD1022233689343336070BDC04692
:10DE4000F410002004E100E0052806DC54234343DD
:10DE50000348C01801650020704701204042FBE7DD
:10DE6000F410002010B500F017FE10BD024B187D15
:10DE7000012318407047C0460040004104231C4A5B
:10DE800070B5D1691B4C0B43D3612023228BFF3328
:10DE9000134323830500FFF7E9FF03000520002B50
:10DEA00024D0C0206A78EB78D1019B040B432978F9
:10DEB0008000090201401E200B43A978490001405F
:10DEC000C0200B43297980020904014008200B433C
:10DED0006360A36808495B035B0F98400880A368F0
:10DEE0000A714B80208BC005C00F000170BDC04679
:10DEF0000004004000400041EC120020F7B5254A24
:10DF0000019153881188019A4B430400934207D230
:10DF10008022019B204992015B181820934211D85E
:10DF200080231E4DDB026F682E003B436B60202375
:10DF30002A8BFF3313432B83FFF798FF002802D16E
:10DF40006F600530FEBD062C14D8052C1BD2022CA8
:10DF500001D0042C14D1019B9B085B00F361A52325
:10DF60001B021C433480FFF781FF0028FBD0776041
:10DF70000020E7E7402C03D3412CECD9452CEED907
:10DF800077601720DEE72B8BDB05E4D56F60102070
:10DF9000D8E7C046EC12002000C07FFF00400041DF
:10DFA000F7B5224F01913B88798816005943050047
:10DFB0001822814227D3591E084224D1013AB34284
:10DFC00021D3FFF753FF052200281CD0184C194B12
:10DFD0002380FFF74BFF0028FBD02023228BFF3349
:10DFE0001343238300236A085200701E9E420CD8FC
:10DFF00000223B79934206D13F2E04D82900042009
:10E00000FFF77CFF02001000FEBD0199C95C83424E
:10E0100005DB89B2023311809BB20232E6E7019C34
:10E02000E418647824022143F4E7C046EC1200208F
:10E030000040004144A5FFFFF8B5174B0F00160044
:10E0400059881A88050051431823814216D3541E5B
:10E05000044013D1013BB24210D3FFF707FF052361
:10E0600000280BD020230D4AFF33118B6D080B4382
:10E0700013836D00711EA64202D800231800F8BD5C
:10E080002B889BB23B558C4202DA3A191B0A53701B
:10E090000234A4B20235EEE7EC1200200040004149
:10E0A00010B5114A0400138851881822594381423F
:10E0B00018D39B00013B184214D1FFF7D7FE05226D
:10E0C00000280FD02022094BFF32198BA4080A43E5
:10E0D0001A83074A6400DC611A80FFF7C7FE002834
:10E0E000FBD00022100010BDEC12002000400041C7
:10E0F00002A5FFFF202210B5134BFF32198B072416
:10E100000A431A8308229B68190C21408A40027036
:10E110000E4A438013881B092340A34209D10023E0
:10E120004360072312881A409A4207D10023836074
:10E1300010BD0621C91A04238B40F1E79B1A042263
:10E140009A408260F4E7C0460040004100408000F1
:10E150007047000010B5024B00201B68984710BDA7
:10E16000F412002010B5024B01205B68984710BDE7
:10E17000F412002010B5024B02209B68984710BD96
:10E18000F412002010B5024B0320DB68984710BD45
:10E19000F412002010B5024B04201B69984710BDF3
:10E1A000F412002010B5024B05205B69984710BDA2
:10E1B000F412002007B56A46044B0093044B938089
:10E1C00000F0F4FD6B4618560EBDC046090A0B0C54
:10E1D0000D0E0000F8B5164C164A2378002B09D115
:10E1E0001E00154F154DD750EE500433182BFAD1A1
:10E1F000173B23708300D150052808D801F080F91F
:10E2000003080B0E111409200D49FFF7ADF8F8BDF6
:10E210000C490A20F9E70C490B20F6E70B490C20C2
:10E22000F3E70B490D20F0E70A490E20EDE7C04661
:10E23000F2120020F412002031210000BC13002053
:10E240003521000045210000552100006521000016
:10E2500075210000852100000268D369002BFCD1E4
:10E2600070470000F0B507008FB0396008000591D5
:10E270001500012600F09AFD059B84461B680520C9
:10E28000334200D0F7E0059B17301C6802231C4086
:10E2900000D0F0E063463000023398400300904A1B
:10E2A000116A0B4313622B002D3304931B7808A9CA
:10E2B0000B7063461433DBB218000393FEF764F867
:10E2C0000398FEF725F8049B2100187800F0A2FCC3
:10E2D000EB7A7B716B1DDB7FBB71AB1DDB7FFB7151
:10E2E000EB7E3B722B7F7B723B681800049300F03F
:10E2F0005DFD0AAB1C8080232A8ADB019A4200D193
:10E30000CBE000D9B9E080239B019A4200D1BFE065
:10E31000102300260393EB1DDC7FE96863072C685C
:10E3200006930C4369696B680C431C4314432A7EB3
:10E33000120214432A0007940832002B00D1B0E0E7
:10E34000802149058B420FD1D37F002B0CD1143093
:10E35000C0B22C6AFEF724F80AAA0100200000F0DF
:10E36000A5FB002800D086E06B7E002B02D0AB7EA0
:10E37000049A93733800FFF76FFF06AB1B8A049A69
:10E38000069C9381079B1C432B000833DB7F002BEB
:10E3900001D104331C436E7E2B7FB6025B021E4309
:10E3A0006B7F1B021E436B1DDB7F5B041E43AB1D9B
:10E3B000DB7F1B041E43EB7A1E432B89FF2B00D10E
:10E3C00086E08022520414431E432B002C331B781A
:10E3D000002B03D1434B9B789B0701D580231C4323
:10E3E0003800FFF739FF049B38005E60FFF734FF09
:10E3F000049B00261C60802309AC23702B6B667085
:10E400000A936B6BE6700B93AB6BA6700C93EB6B84
:10E4100003930D93102006AAB3001218D058F1B23E
:10E42000002802D1059800F013FC431C05D0207091
:10E43000000CC0B2210000F0C7F90136042EE9D16A
:10E440003B0000243233FC85FC603C617C61BC6194
:10E45000FC613C62BC627C62BC853C8638681C7096
:10E460005C7000F0A3FC05001F49FFF7B3FE20001D
:10E470001E4BAD00EF500FB0F0BDC023DB019A4240
:10E4800009D080231B029A4200D041E7032340E7D2
:10E49000102303933FE70823FBE708232600039399
:10E4A00039E7D37F2C6A002B08D0039B0AAA00937C
:10E4B0003300A96A200000F00DFB52E71430C0B20F
:10E4C000FDF76EFF039B010000930AAA3300F1E7FA
:10E4D000EB7E002B00D178E78023DB041C4374E73C
:10E4E0000004004000200041B9250000BC130020BA
:10E4F00070B5C2790D001C23002A0CD0C28D173BC9
:10E50000002A08D10468FFF7A7FE02232585227E92
:10E510001A42FCD00023180070BDF7B5050003684F
:10E520000E0017000193FDF757FFEC8DA4B2002CED
:10E5300003D0FDF76BFF0520FEBDEF85FDF766FFFD
:10E540000523AE62019A33352B70043B937520008E
:10E55000F2E7F8B504000E0017000568FDF73CFF70
:10E56000A38D002B03D0FDF751FF0520F8BDA78533
:10E57000FDF74CFF23000522323366621A70042334
:10E58000AB75237A002B01D02023AB750020637A72
:10E590008342EBD00823AB75E8E7931C9B00C318BC
:10E5A0005960012393401A003030037813430370FD
:10E5B000704710B50122FFF7CCFF10BD10B517232F
:10E5C000002A06D0C4790533002C02D0FFF7A5FF3E
:10E5D0000300180010BD0000F8B5594B8000C45866
:10E5E0002568EB69002BFCD12B7EAF7D1F402300FB
:10E5F00030331A785E78012316401F421AD0E28D1C
:10E60000002A00D175E0A26A511C1378A1626179D9
:10E61000DBB2012900D166E09BB2DB05DB0D2B8567
:10E62000E38D013B9BB2E385002B03D101332B75B6
:10E630000133AB7502231F4209D02B752300002242
:10E6400033331A70F30702D52000E3689847042398
:10E650001F4229D0A28D002A00D16FE06B8BDBB264
:10E660001A0748D43F22134047D002221A211342EE
:10E670000FD104221E2113420BD101221321134278
:10E6800007D110224221134203D12022134206D087
:10E6900041212300323319706B8B1A436A8373074D
:10E6A00002D520006369984710231F4206D02B75BE
:10E6B0002B761E4202D02000E369984720231F4298
:10E6C00006D02B752B76330702D52000A369984717
:10E6D00008231F4206D02B752B76B30602D5236A7A
:10E6E00020009847F8BD5178023209020B43A2621C
:10E6F00093E72B759EE73722B5E72B8D616ADB0523
:10E70000DB0DDAB20A70626A511C6162617901291B
:10E7100004D11B0A5370636A01336362A38D013B0A
:10E720009BB2A385002BBFD104222A75220032326E
:10E730001370B307B8D520002369B4E72B75B3E78E
:10E74000BC130020F0B5D578002D35D114782B00FE
:10E75000802C03D0802324065B02234354780226B6
:10E760002700B74306D19678002E22D18026B60224
:10E7700033434160013C012C01D8124C2340A024BA
:10E780008EB2E40534431C438462D0240E0C24066C
:10E7900034431C438462002D0AD15B0303D5937874
:10E7A000012B0CD181615378013B012B00D8816092
:10E7B000F0BDC026F602DBE741600023DFE74161E0
:10E7C000F1E7C046FFFFFBFF10B503000A00440954
:10E7D000C1090020814202D10449E00140181F21F3
:10E7E0000B401E399940FFF7ADFF10BD00440041BA
:10E7F000084A0300904209D0074A904208D0074ACD
:10E800000020934201D10230C0B270470020FBE7E4
:10E810000120F9E7002C00420030004200340042A1
:10E82000F0B5060087B0080014000D00FFF7E0FF08
:10E830006A46794B356013811C239372774B07002E
:10E84000049380239B019382A378082B03D1172084
:10E85000FA0700D4CAE0012233712B880520134245
:10E8600000D0C3E0EB7B1730DB0600D5BEE0022111
:10E870002B880B4000D0B9E0217C002909D003A9E6
:10E88000CB70A3698A700B7063694A70D8B2FFF7C6
:10E890009BFF237F002B0BD00123002203A98B7049
:10E8A0004B70236ACA70626AD8B20A70FFF78CFF95
:10E8B0007A0094466846102280186246584B825A65
:10E8C000196A0A431A62A278082A0AD1791C4A00F6
:10E8D000944610216A4652186146186A525A0243F9
:10E8E0001A62237801A90B7008226B469B18DF5D22
:10E8F0003800FDF749FD3800FDF70AFDA379A2783D
:10E90000A1881A4323890B431A436378002B02D052
:10E9100080231B011A433368D97B49B20029FBDBF2
:10E920002A80627B511E8A41A17B9200002901D07E
:10E9300001210A43D97B49B20029FBDBFF21297160
:10E94000002A04D0D97B49B20029FBDB6A71E27A44
:10E95000A17A002A01D010221143227B002A01D083
:10E9600020221143DA7B52B2002AFBDBA971DA7B49
:10E9700052B2002AFBDB3279042A17D0082A37D09A
:10E980001720002A32D1DA7B52B2002AFBDB228D1B
:10E990002A82DA7B52B2002AFBDB628D2A83DA7B81
:10E9A00052B2002AFBDBA38D6B831EE0DA7B52B2EE
:10E9B000002AFBDB2200283212782A74DA7B52B25A
:10E9C000002AFBDB2200293212782A75DA7B52B248
:10E9D000002AFBDB22002A3212782A76DA7B52B236
:10E9E000002AFBDB2B3423786B76002007B0F0BDC8
:10E9F000DA7B52B2002AFBDBA26A2A61DA7B52B2CE
:10EA0000002AFBDBE26AAA61DA7B52B2002AFBDB56
:10EA1000236BEB61E9E7C0461B1C000000080010F7
:10EA2000000400400368DA7B52B2002AFBDB027963
:10EA3000042A07D0082A08D00020002A04D1188A06
:10EA400080B201E0187CC0B270471869FCE710B5CD
:10EA50000468E37B5BB2002BFBDB0379042B0CD057
:10EA6000082B12D01720002B0ED1172001290BD80C
:10EA70000C3192B249000A5305E01720012903D84E
:10EA8000D2B261180A76002010BD17200129FBD8E8
:10EA9000063189000A51F6E7A522034B1A72DA798A
:10EAA00052B2002AFBDB70470010004010B5490845
:10EAB000040000234020A14201D210BD0300581CD5
:10EAC000091B80B28C42F9D94020FF2BF5D8138066
:10EAD0000020F2E7F0B58BB0069202001D0010ABEB
:10EAE0000E00197840234A43B24200D98BE0002D32
:10EAF00042D1002427002B0002000800290000F06A
:10EB000089FE002301953D0000961C001E003F3346
:10EB100007900393039A0120002100F06FFE22006A
:10EB20002B0012196B41049205931D00079B1400E2
:10EB30000B4203D0012222431400059D019BAB42EE
:10EB40000BD802D1009BA34207D8009A019B304307
:10EB50003943A41A9D4106000F00039B5A1E0392DD
:10EB6000D8D200220123921BBB41140C1B041C436E
:10EB7000069B1C80002346E00024012DF8D1730F72
:10EB80000793F30008930A002300210000F042FEDF
:10EB90000090019109950023002600273F2503934B
:10EBA0002A000120002100F029FE32003B008C46A3
:10EBB00092197B41049205931F0063461600089941
:10EBC000079A01401340194303D0099A059F324325
:10EBD0001600019BBB420AD802D1009BB34206D863
:10EBE000009A019BB61A9F41039B03430393013D87
:10EBF000D6D2039B064A1B1BDB08934206D901347D
:10EC0000082CC8D1402318000BB0F0BD6403AEE758
:10EC1000FF1F000037B50D4C05002378002B01D0F5
:10EC200000290CD001A913200D70FDF7ADFB1320B6
:10EC3000FDF76EFB01230020657023703EBD6378F5
:10EC40000800AB42FAD01D20F8E7C0460C130020A4
:10EC5000394A030000B50800934237D007D8374A35
:10EC6000934214D0364A934221D0002317E0354A0C
:10EC7000934242D0344A93424ED0344A9342F4D124
:10EC8000002303290BD800F03BFC3230343600233C
:10EC9000032904D800F034FC050207092C4B1800A6
:10ECA00000BD2C4BFBE72C4BF9E72C4BF7E700237F
:10ECB0000329F4D800F024FC04020608284BEEE7F0
:10ECC0000323ECE7274BEAE7274BE8E70023032978
:10ECD000E5D800F015FC04020608244BDFE7244BBE
:10ECE000DDE7244BDBE7244BD9E7244BD7E7244B64
:10ECF000D5E7244BD3E7244BD1E700230329CED813
:10ED000000F0FEFB04020608204BC8E7204BC6E7D4
:10ED1000204BC4E7204BC2E700230329BFD800F0F3
:10ED2000EFFB040206081D4BB9E71D4BB7E71D4B6F
:10ED3000B5E71D4BB3E7C046001000420008004293
:10ED4000000C004200180042001C00420014004267
:10ED50000300050003000400030006000300070091
:10ED60000300010003001E0003001F000300090050
:10ED70000300080003000A0003000B000300110059
:10ED800003001000030012000300130003000D0035
:10ED900003000C0003000E0003000F000300170027
:10EDA00003001600030018000300190070B586B0B8
:10EDB0006A461100084B70CB70C170CB70C1002344
:10EDC00099005158814202D1D8B206B070BD0133CA
:10EDD000062BF5D10020F8E72C3A000010B500F022
:10EDE00076F8FEF7E3FC002800D000BE8022024B3C
:10EDF00012065A60FEF7C6FC00ED00E0024B10B5AB
:10EE00005A685B68FEF7BEFC00ED00E010B501003B
:10EE10000020FEF7E7FD10BD10B50369416904004D
:10EE20009847E37E002803D01B07DB17184010BD6E
:10EE300001221343E376FAE770B50400C1610021B3
:10EE400063761E00049B22760361059B15004361D7
:10EE50001022418300F09EF9144A1368002B0CD154
:10EE600023622300203353601460114B186800287C
:10EE700002D02000FFF7D0FF70BD187E196AA842AB
:10EE800002D8587EB04208D90B1EF6D153682162D1
:10EE90001C60230020335360E7E72162002902D180
:10EEA0002100203151601C62DFE7C04610130020B2
:10EEB0002815002010B500F0F7F810BD10B500F0CF
:10EEC0003FF910BD10B5012000F008F810BDEFF3B8
:10EED000108072B60123184070470000024B1A6878
:10EEE000101818607047C0463415002080F3098858
:10EEF00038480078023080F31488BFF36F8F704772
:10EF00000346F0C044464D4656465F46F0C0F0CB3F
:10EF10007047EFF30980816902390978002908D127
:10EF200001698C460FC800B5E047EFF3098307C3BA
:10EF300000BD10B5284A1268914209D8274C8900B3
:10EF40006458A6461FC8A446F047EFF309840FC4CF
:10EF500010BD234B1A68234B1968914200D17047AA
:10EF6000EFF309802038F0C044464D4656465F46D0
:10EF7000F0C0203808601A6010681030F0C8A04651
:10EF8000A946B246BB4680F309882038F0C87047CE
:10EF900010B5FFF797FF10BD23B41348D521134DCB
:10EFA0002847704604210842EFF3088C01D0EFF3A4
:10EFB000098C4046494652465B460FB56346F8B455
:10EFC0006846FFF71BFFF8BC0FBC80468946924697
:10EFD0009B4600BD1813002000000000FCFFFFFF4F
:10EFE000CC0000202C150020443A0000BD2D00006C
:10EFF0000120704770470000C36810B51968826827
:10F0000001291CD15C681919884218D141689A609D
:10F0100009195960D360116801290ED1596858182F
:10F0200082420AD1506841185960506911690161E2
:10F030004861D16892688A60D160180010BD0123D0
:10F040000360044B196943610161186103695861E8
:10F050000300E0E7D400002010B50400172908D908
:10F06000012303600D4B41601B6898470C4B00283F
:10F0700000D110BDDB681A68022A01D09C42F9D980
:10F080009A68E360A2609C60A3682000DC60FFF7E0
:10F09000B3FF044B1B689847EBE7C046EC00002029
:10F0A000D4000020F0000020F8B5002802D1002490
:10F0B0002000F8BD0F231F3098431E4B04001B682F
:10F0C00098470028F3D01C4B1B691A68022A06D106
:10F0D000200000F001FA431C28D100241BE05868EE
:10F0E0001969A04220D3220020325D69904216D3D4
:10F0F0001A19001B9E6801275060002017601860D5
:10F100005C60D3609660F2609A60116155614A61FB
:10F110002A6110331C00094B1B689847C8E700227E
:10F120001A6029614D61F4E70B00CEE72100FFF77B
:10F1300093FFC8E7EC000020D4000020F00000207E
:10F1400010B5041E0BD0064B1B689847002806D04C
:10F1500020001038FFF750FF024B1B68984710BD86
:10F16000EC000020F000002030B50024944201D1D2
:10F17000002304E0035D0D5D01345B1BF6D0180035
:10F1800030BD002310B59A4200D110BDCC5CC454F0
:10F190000133F8E703001218934200D17047197049
:10F1A0000133F9E703001A78002A01D1181A7047D1
:10F1B0000133F8E70D4B70B51B68002B13D00C4AD8
:10F1C00014680022944202DC0420404208E01D0042
:10F1D0000C331E000C3E3678864202D100200D60B2
:10F1E00070BD0132EEE70720EFE7C046381500207A
:10F1F0003C1500207047F0B5C3B289B00E0018006E
:10F2000005A914000393FFF7D5FF071E0BD1059B3B
:10F2100030605878FEF74CF801970290029B019AF3
:10F22000DB68934202DC380009B0F0BD029B06AAFD
:10F230001B680199DB6802981D0007ABA847059978
:10F24000069A4B68934211D888681B189A420DD2CF
:10F25000002C08D06B461B7B23704B786260637078
:10F26000079BA3600C34336801333360019B013387
:10F270000193D3E770B584688C4208D3CD18AC42B3
:10F2800005D3446840780919FEF71FF970BD0120C5
:10F290004042FBE770B584688C4208D3CD18AC427D
:10F2A00005D3446840780919FEF72DF970BD012097
:10F2B0004042FBE7836810B58B4208D38C18A34209
:10F2C00005D343684078C918FEF73BF910BD01200B
:10F2D0004042FBE710B54078FEF7EDF810BD10B5E1
:10F2E000002808D00223012806D000231A001900A4
:10F2F0001800FFF773FD0123180010BDF0B589B0A9
:10F30000FEF7C4F8002807D000201D4B00901C68B1
:10F31000020003000100A0471A4B1B4F1B4E3B602D
:10F32000062333600023049300F09AF8041E08D1EA
:10F33000022204A903A800F063F8002803D00328E0
:10F3400019D009B0F0BD05AD2A00049903A800F05A
:10F3500065F80028F5D10C2262430D4B2978013461
:10F36000D1549B186A785A706A685A60AA689A6081
:10F370000A2CDDD1E5E7064B34603B60E1E7C0468F
:10F38000F4000020883A0000381500203C150020C9
:10F390001C130020F7B50124184F06003B780D0020
:10F3A000234209D001A90020FFF704FF002805D05F
:10F3B00004240198FFF71EFF2000FEBD2A68002AE2
:10F3C00017D17B6804332B60019F2B68BA68083320
:10F3D00003249342F0D2022200213000FFF7DAFE2C
:10F3E0000223320029683800FFF744FF041EDFD1F2
:10F3F000DFE773789B180233E5E7C046401500202D
:10F4000070B504000E00150031002000FFF7C2FFA8
:10F41000002802D12378AB42F6D170BD73B5060047
:10F420000C00002001A91500FFF7C4FE011E05D045
:10F4300004240198FFF7DEFE200076BD0C22280090
:10F44000FFF7A8FE7278131C0C2A00D90C23A11C0C
:10F45000DBB22A000198FFF70DFF041EE9D0E7E7B1
:10F46000F0B50126184D85B02B78002433420BD11E
:10F47000B34301A920002B70FFF79CFEA04206D0E9
:10F4800004240198FFF7B6FE200005B0F0BD0198F6
:10F4900002AF81680823083989B23A00FFF7EAFE13
:10F4A000041EEDD1094B7A689A420BD1019B3A8830
:10F4B0009B689A4206D829789B1A0E432E706B607F
:10F4C000AA60DEE70224DCE74015002069A2B23B17
:10F4D00010B5FFF783FC0000002809DB0649074A46
:10F4E0000B68D21A824203DB1818086018007047B4
:10F4F00001235B42FAE7C046F8000020007C0020B0
:10F5000002B4714649084900095C49008E4402BCB6
:10F510007047C046002243088B4274D303098B42D4
:10F520005FD3030A8B4244D3030B8B4228D3030CD3
:10F530008B420DD3FF22090212BA030C8B4202D375
:10F540001212090265D0030B8B4219D300E0090A9D
:10F55000C30B8B4201D3CB03C01A5241830B8B42A6
:10F5600001D38B03C01A5241430B8B4201D34B038F
:10F57000C01A5241030B8B4201D30B03C01A5241F4
:10F58000C30A8B4201D3CB02C01A5241830A8B4279
:10F5900001D38B02C01A5241430A8B4201D34B0262
:10F5A000C01A5241030A8B4201D30B02C01A5241C6
:10F5B000CDD2C3098B4201D3CB01C01A524183097A
:10F5C0008B4201D38B01C01A524143098B4201D3B4
:10F5D0004B01C01A524103098B4201D30B01C01ADF
:10F5E0005241C3088B4201D3CB00C01A5241830859
:10F5F0008B4201D38B00C01A524143088B4201D386
:10F600004B00C01A5241411A00D2014652411046E5
:10F610007047FFE701B50020FFF7BEFC02BDC04602
:10F620000029F7D076E7704703460B437FD40022CA
:10F6300043088B4274D303098B425FD3030A8B4286
:10F6400044D3030B8B4228D3030C8B420DD3FF22F0
:10F65000090212BA030C8B4202D31212090265D0BE
:10F66000030B8B4219D300E0090AC30B8B4201D371
:10F67000CB03C01A5241830B8B4201D38B03C01AB8
:10F680005241430B8B4201D34B03C01A5241030B2F
:10F690008B4201D30B03C01A5241C30A8B4201D3E0
:10F6A000CB02C01A5241830A8B4201D38B02C01A8B
:10F6B0005241430A8B4201D34B02C01A5241030A02
:10F6C0008B4201D30B02C01A5241CDD2C3098B42E7
:10F6D00001D3CB01C01A524183098B4201D38B0164
:10F6E000C01A524143098B4201D34B01C01A524107
:10F6F00003098B4201D30B01C01A5241C3088B424C
:10F7000001D3CB00C01A524183088B4201D38B0036
:10F71000C01A524143088B4201D34B00C01A5241D8
:10F72000411A00D201465241104670475DE0CA0FAF
:10F7300000D04942031000D34042534000229C466F
:10F7400003098B422DD3030A8B4212D3FC22890179
:10F7500012BA030A8B420CD3890192118B4208D34F
:10F76000890192118B4204D389013AD0921100E0B1
:10F770008909C3098B4201D3CB01C01A52418309C5
:10F780008B4201D38B01C01A524143098B4201D3F2
:10F790004B01C01A524103098B4201D30B01C01A1D
:10F7A0005241C3088B4201D3CB00C01A5241830897
:10F7B0008B4201D38B00C01A5241D9D243088B42ED
:10F7C00001D34B00C01A5241411A00D20146634690
:10F7D00052415B10104601D34042002B00D54942F4
:10F7E000704763465B1000D3404201B50020FFF72D
:10F7F000D3FB02BD0029F8D016E770479140031CE7
:10F8000090409C46203A9340194352426346D3406D
:10F8100019437047F0B5CE46474615042D0C2E000F
:10F8200080B50704140C3F0C9946030C7E435D43DE
:10F83000674363437F19340CE4199C46A54203D9FE
:10F8400080235B029846C4444B4643435143250CF6
:10F8500036046544360C2404A4195B195918200099
:10F860000CBC90469946F0BD010001000100FF026A
:10F87000000100010300FF02040103010204000073
:10F8800077C295F360D2EF7F3552500F2CB6798056
:10F890000303000001000100FF0200010001030159
:10F8A00003FF00040103010001000000982F8A42B9
:10F8B00091443771CFFBC0B5A5DBB5E95BC25639C2
:10F8C000F111F159A4823F92D55E1CAB98AA07D8DA
:10F8D000015B8312BE853124C37D0C55745DBE72FD
:10F8E000FEB1DE80A706DC9B74F19BC1C1699BE47D
:10F8F0008647BEEFC69DC10FCCA10C246F2CE92D0D
:10F90000AA84744ADCA9B05CDA88F97652513E9830
:10F910006DC631A8C82703B0C77F59BFF30BE0C637
:10F920004791A7D55163CA0667292914850AB727C5
:10F9300038211B2EFC6D2C4D130D385354730A6562
:10F94000BB0A6A762EC9C281852C7292A1E8BFA239
:10F950004B661AA8708B4BC2A3516CC719E892D1A1
:10F96000240699D685350EF470A06A1016C1A41924
:10F97000086C371E4C774827B5BCB034B30C1C3923
:10F980004AAAD84E4FCA9C5BF36F2E68EE828F74E2
:10F990006F63A5781478C8840802C78CFAFFBE90FC
:10F9A000EB6C50A4F7A3F9BEF27871C6800000009A
:10F9B0000000000000000000000000000000000047
:10F9C0000000000000000000000000000000000037
:10F9D0000000000000000000000000000000000027
:10F9E000000000000000000000000000756172745B
:10F9F0003000000000100042000031000000000054
:10FA000000000000000000000000000003000A00E9
:10FA100003000B00F3160000651600003916000005
:10FA200009160000AD1500000080000000800000F5
:10FA30000080000000127A00006CDC0200D8B805DB
:10FA400098130020000000000000000000080042A1
:10FA5000000C004200100042001400420018004256
:10FA6000001C00427265706F732F6170616368657E
:10FA70002D6D796E6577742D636F72652F6B65726E
:10FA80006E656C2F6F732F7372632F617263682FB3
:10FA9000636F727465785F6D302F6D302F48414C05
:10FAA0005F434D302E730000000000000000000096
:10FAB00000C000000100000000C000000080010044
:10FAC000020000000040020000800100030000006E
:10FAD00000C00300001C00001000000000DC030058
:10FAE000000400001100000000E0030000200000FE
:10FAF000FCF3FF7F0100000008F4FF7FB0B0B0808E
:10FB000012F4FF7F0100000001000000F439000042
:10FB100000000000000000000000000000000000E5
:10FB200000000000CC0000200200000000000000E7
:10FB3000D4000020D4000020D4000020D4000020F5
:10FB4000D12F0000D52F0000B13400004C1500204B
:10FB5000010020007356A8EEA4956932BA90C45DE6
:10FB60009FEAAF77F309F6512EF8E6F37DD3537B86
:04FB7000111DAC0AAD
:040000030000C00039
:00000001FF
